{
  "contractName": "myTokenERC20",
  "abi": [
    {
      "inputs": [
        {
          "internalType": "uint256",
          "name": "initialSupply",
          "type": "uint256"
        },
        {
          "internalType": "uint8",
          "name": "decimal",
          "type": "uint8"
        },
        {
          "internalType": "string",
          "name": "tokenName",
          "type": "string"
        },
        {
          "internalType": "string",
          "name": "tokenSymbol",
          "type": "string"
        }
      ],
      "stateMutability": "nonpayable",
      "type": "constructor"
    },
    {
      "anonymous": false,
      "inputs": [
        {
          "indexed": true,
          "internalType": "address",
          "name": "owner",
          "type": "address"
        },
        {
          "indexed": true,
          "internalType": "address",
          "name": "spender",
          "type": "address"
        },
        {
          "indexed": false,
          "internalType": "uint256",
          "name": "value",
          "type": "uint256"
        }
      ],
      "name": "Approval",
      "type": "event"
    },
    {
      "anonymous": false,
      "inputs": [
        {
          "indexed": true,
          "internalType": "address",
          "name": "from",
          "type": "address"
        },
        {
          "indexed": true,
          "internalType": "address",
          "name": "to",
          "type": "address"
        },
        {
          "indexed": false,
          "internalType": "uint256",
          "name": "value",
          "type": "uint256"
        }
      ],
      "name": "Transfer",
      "type": "event"
    },
    {
      "inputs": [],
      "name": "totalSupply",
      "outputs": [
        {
          "internalType": "uint256",
          "name": "",
          "type": "uint256"
        }
      ],
      "stateMutability": "view",
      "type": "function",
      "constant": true
    },
    {
      "inputs": [
        {
          "internalType": "address",
          "name": "tokenOwner",
          "type": "address"
        }
      ],
      "name": "balanceOf",
      "outputs": [
        {
          "internalType": "uint256",
          "name": "",
          "type": "uint256"
        }
      ],
      "stateMutability": "view",
      "type": "function",
      "constant": true
    },
    {
      "inputs": [
        {
          "internalType": "address",
          "name": "receiver",
          "type": "address"
        },
        {
          "internalType": "uint256",
          "name": "numTokens",
          "type": "uint256"
        }
      ],
      "name": "transfer",
      "outputs": [
        {
          "internalType": "bool",
          "name": "",
          "type": "bool"
        }
      ],
      "stateMutability": "nonpayable",
      "type": "function"
    },
    {
      "inputs": [
        {
          "internalType": "address",
          "name": "owner",
          "type": "address"
        },
        {
          "internalType": "address",
          "name": "delegate",
          "type": "address"
        }
      ],
      "name": "allowance",
      "outputs": [
        {
          "internalType": "uint256",
          "name": "",
          "type": "uint256"
        }
      ],
      "stateMutability": "view",
      "type": "function",
      "constant": true
    },
    {
      "inputs": [
        {
          "internalType": "address",
          "name": "delegate",
          "type": "address"
        },
        {
          "internalType": "uint256",
          "name": "numTokens",
          "type": "uint256"
        }
      ],
      "name": "approve",
      "outputs": [
        {
          "internalType": "bool",
          "name": "",
          "type": "bool"
        }
      ],
      "stateMutability": "nonpayable",
      "type": "function"
    },
    {
      "inputs": [
        {
          "internalType": "address",
          "name": "owner",
          "type": "address"
        },
        {
          "internalType": "address",
          "name": "buyer",
          "type": "address"
        },
        {
          "internalType": "uint256",
          "name": "numTokens",
          "type": "uint256"
        }
      ],
      "name": "transferFrom",
      "outputs": [
        {
          "internalType": "bool",
          "name": "",
          "type": "bool"
        }
      ],
      "stateMutability": "nonpayable",
      "type": "function"
    },
    {
      "inputs": [
        {
          "internalType": "address",
          "name": "newOwner",
          "type": "address"
        }
      ],
      "name": "transferOwnership",
      "outputs": [
        {
          "internalType": "bool",
          "name": "a",
          "type": "bool"
        }
      ],
      "stateMutability": "nonpayable",
      "type": "function"
    },
    {
      "inputs": [
        {
          "internalType": "address",
          "name": "approver",
          "type": "address"
        }
      ],
      "name": "getApproverToChangePrice",
      "outputs": [
        {
          "internalType": "bool",
          "name": "a",
          "type": "bool"
        }
      ],
      "stateMutability": "nonpayable",
      "type": "function"
    },
    {
      "inputs": [
        {
          "internalType": "uint256",
          "name": "newPrice",
          "type": "uint256"
        }
      ],
      "name": "setPrice",
      "outputs": [
        {
          "internalType": "uint256",
          "name": "",
          "type": "uint256"
        }
      ],
      "stateMutability": "nonpayable",
      "type": "function"
    },
    {
      "inputs": [
        {
          "internalType": "uint256",
          "name": "numTokens",
          "type": "uint256"
        }
      ],
      "name": "getbackEthers",
      "outputs": [
        {
          "internalType": "bool",
          "name": "",
          "type": "bool"
        }
      ],
      "stateMutability": "payable",
      "type": "function",
      "payable": true
    }
  ],
  "bytecode": "0x6080604052670de0b6b3a76400006009553480156200001d57600080fd5b5060405162001f2d38038062001f2d83398181016040528101906200004391906200028f565b82600a620000529190620003ef565b846200005f91906200052c565b60008190555081600390805190602001906200007d9291906200013f565b508060049080519060200190620000969291906200013f565b5033600560006101000a81548173ffffffffffffffffffffffffffffffffffffffff021916908373ffffffffffffffffffffffffffffffffffffffff160217905550600054600660003373ffffffffffffffffffffffffffffffffffffffff1673ffffffffffffffffffffffffffffffffffffffff1681526020019081526020016000208190555060026000546200012f91906200052c565b60018190555050505050620006de565b8280546200014d90620005da565b90600052602060002090601f016020900481019282620001715760008555620001bd565b82601f106200018c57805160ff1916838001178555620001bd565b82800160010185558215620001bd579182015b82811115620001bc5782518255916020019190600101906200019f565b5b509050620001cc9190620001d0565b5090565b5b80821115620001eb576000816000905550600101620001d1565b5090565b600062000206620002008462000361565b6200032d565b9050828152602081018484840111156200021f57600080fd5b6200022c848285620005a4565b509392505050565b600082601f8301126200024657600080fd5b815162000258848260208601620001ef565b91505092915050565b6000815190506200027281620006aa565b92915050565b6000815190506200028981620006c4565b92915050565b60008060008060808587031215620002a657600080fd5b6000620002b68782880162000261565b9450506020620002c98782880162000278565b935050604085015167ffffffffffffffff811115620002e757600080fd5b620002f58782880162000234565b925050606085015167ffffffffffffffff8111156200031357600080fd5b620003218782880162000234565b91505092959194509250565b6000604051905081810181811067ffffffffffffffff821117156200035757620003566200066e565b5b8060405250919050565b600067ffffffffffffffff8211156200037f576200037e6200066e565b5b601f19601f8301169050602081019050919050565b6000808291508390505b6001851115620003e657808604811115620003be57620003bd62000610565b5b6001851615620003ce5780820291505b8081029050620003de856200069d565b94506200039e565b94509492505050565b6000620003fc826200058d565b9150620004098362000597565b9250620004387fffffffffffffffffffffffffffffffffffffffffffffffffffffffffffffffff848462000440565b905092915050565b60008262000452576001905062000525565b8162000462576000905062000525565b81600181146200047b57600281146200048657620004bc565b600191505062000525565b60ff8411156200049b576200049a62000610565b5b8360020a915084821115620004b557620004b462000610565b5b5062000525565b5060208310610133831016604e8410600b8410161715620004f65782820a905083811115620004f057620004ef62000610565b5b62000525565b62000505848484600162000394565b925090508184048111156200051f576200051e62000610565b5b81810290505b9392505050565b600062000539826200058d565b915062000546836200058d565b9250817fffffffffffffffffffffffffffffffffffffffffffffffffffffffffffffffff048311821515161562000582576200058162000610565b5b828202905092915050565b6000819050919050565b600060ff82169050919050565b60005b83811015620005c4578082015181840152602081019050620005a7565b83811115620005d4576000848401525b50505050565b60006002820490506001821680620005f357607f821691505b602082108114156200060a57620006096200063f565b5b50919050565b7f4e487b7100000000000000000000000000000000000000000000000000000000600052601160045260246000fd5b7f4e487b7100000000000000000000000000000000000000000000000000000000600052602260045260246000fd5b7f4e487b7100000000000000000000000000000000000000000000000000000000600052604160045260246000fd5b60008160011c9050919050565b620006b5816200058d565b8114620006c157600080fd5b50565b620006cf8162000597565b8114620006db57600080fd5b50565b61183f80620006ee6000396000f3fe6080604052600436106100915760003560e01c8063a9059cbb11610059578063a9059cbb146101b5578063bfba39ae146101f2578063c1e579181461022f578063dd62ed3e1461025f578063f2fde38b1461029c57610091565b8063095ea7b31461009657806318160ddd146100d357806323b872dd146100fe57806370a082311461013b57806391b7f5ed14610178575b600080fd5b3480156100a257600080fd5b506100bd60048036038101906100b891906111ac565b6102d9565b6040516100ca9190611539565b60405180910390f35b3480156100df57600080fd5b506100e86103cb565b6040516100f59190611654565b60405180910390f35b34801561010a57600080fd5b506101256004803603810190610120919061115d565b6103d4565b6040516101329190611539565b60405180910390f35b34801561014757600080fd5b50610162600480360381019061015d91906110f8565b61081b565b60405161016f9190611654565b60405180910390f35b34801561018457600080fd5b5061019f600480360381019061019a91906111e8565b610864565b6040516101ac9190611654565b60405180910390f35b3480156101c157600080fd5b506101dc60048036038101906101d791906111ac565b61095f565b6040516101e99190611539565b60405180910390f35b3480156101fe57600080fd5b50610219600480360381019061021491906110f8565b610b6e565b6040516102269190611539565b60405180910390f35b610249600480360381019061024491906111e8565b610c11565b6040516102569190611539565b60405180910390f35b34801561026b57600080fd5b5061028660048036038101906102819190611121565b610f34565b6040516102939190611654565b60405180910390f35b3480156102a857600080fd5b506102c360048036038101906102be91906110f8565b610fbb565b6040516102d09190611539565b60405180910390f35b600081600760003373ffffffffffffffffffffffffffffffffffffffff1673ffffffffffffffffffffffffffffffffffffffff16815260200190815260200160002060008573ffffffffffffffffffffffffffffffffffffffff1673ffffffffffffffffffffffffffffffffffffffff168152602001908152602001600020819055508273ffffffffffffffffffffffffffffffffffffffff163373ffffffffffffffffffffffffffffffffffffffff167f8c5be1e5ebec7d5bd14f71427d1e84f3dd0314c0f7b2291e5b200ac8c7c3b925846040516103b99190611654565b60405180910390a36001905092915050565b60008054905090565b6000600660008573ffffffffffffffffffffffffffffffffffffffff1673ffffffffffffffffffffffffffffffffffffffff16815260200190815260200160002054821115610458576040517f08c379a000000000000000000000000000000000000000000000000000000000815260040161044f906115d4565b60405180910390fd5b600760008573ffffffffffffffffffffffffffffffffffffffff1673ffffffffffffffffffffffffffffffffffffffff16815260200190815260200160002060003373ffffffffffffffffffffffffffffffffffffffff1673ffffffffffffffffffffffffffffffffffffffff16815260200190815260200160002054821115610517576040517f08c379a000000000000000000000000000000000000000000000000000000000815260040161050e90611574565b60405180910390fd5b600073ffffffffffffffffffffffffffffffffffffffff168373ffffffffffffffffffffffffffffffffffffffff161415610587576040517f08c379a000000000000000000000000000000000000000000000000000000000815260040161057e906115b4565b60405180910390fd5b81600660008673ffffffffffffffffffffffffffffffffffffffff1673ffffffffffffffffffffffffffffffffffffffff168152602001908152602001600020546105d29190611730565b600660008673ffffffffffffffffffffffffffffffffffffffff1673ffffffffffffffffffffffffffffffffffffffff1681526020019081526020016000208190555081600760008673ffffffffffffffffffffffffffffffffffffffff1673ffffffffffffffffffffffffffffffffffffffff16815260200190815260200160002060003373ffffffffffffffffffffffffffffffffffffffff1673ffffffffffffffffffffffffffffffffffffffff1681526020019081526020016000205461069d9190611730565b600760008673ffffffffffffffffffffffffffffffffffffffff1673ffffffffffffffffffffffffffffffffffffffff16815260200190815260200160002060003373ffffffffffffffffffffffffffffffffffffffff1673ffffffffffffffffffffffffffffffffffffffff1681526020019081526020016000208190555081600660008573ffffffffffffffffffffffffffffffffffffffff1673ffffffffffffffffffffffffffffffffffffffff168152602001908152602001600020546107689190611680565b600660008573ffffffffffffffffffffffffffffffffffffffff1673ffffffffffffffffffffffffffffffffffffffff168152602001908152602001600020819055508273ffffffffffffffffffffffffffffffffffffffff168473ffffffffffffffffffffffffffffffffffffffff167fddf252ad1be2c89b69c2b068fc378daa952ba7f163c4a11628f55a4df523b3ef846040516108089190611654565b60405180910390a3600190509392505050565b6000600660008373ffffffffffffffffffffffffffffffffffffffff1673ffffffffffffffffffffffffffffffffffffffff168152602001908152602001600020549050919050565b6000600860009054906101000a900473ffffffffffffffffffffffffffffffffffffffff1673ffffffffffffffffffffffffffffffffffffffff163373ffffffffffffffffffffffffffffffffffffffff16148061090f5750600560009054906101000a900473ffffffffffffffffffffffffffffffffffffffff1673ffffffffffffffffffffffffffffffffffffffff163373ffffffffffffffffffffffffffffffffffffffff16145b61094e576040517f08c379a000000000000000000000000000000000000000000000000000000000815260040161094590611554565b60405180910390fd5b816009819055506009549050919050565b6000600660003373ffffffffffffffffffffffffffffffffffffffff1673ffffffffffffffffffffffffffffffffffffffff168152602001908152602001600020548211156109e3576040517f08c379a00000000000000000000000000000000000000000000000000000000081526004016109da906115f4565b60405180910390fd5b81600660003373ffffffffffffffffffffffffffffffffffffffff1673ffffffffffffffffffffffffffffffffffffffff16815260200190815260200160002054610a2e9190611730565b600660003373ffffffffffffffffffffffffffffffffffffffff1673ffffffffffffffffffffffffffffffffffffffff1681526020019081526020016000208190555081600660008573ffffffffffffffffffffffffffffffffffffffff1673ffffffffffffffffffffffffffffffffffffffff16815260200190815260200160002054610abc9190611680565b600660008573ffffffffffffffffffffffffffffffffffffffff1673ffffffffffffffffffffffffffffffffffffffff168152602001908152602001600020819055508273ffffffffffffffffffffffffffffffffffffffff163373ffffffffffffffffffffffffffffffffffffffff167fddf252ad1be2c89b69c2b068fc378daa952ba7f163c4a11628f55a4df523b3ef84604051610b5c9190611654565b60405180910390a36001905092915050565b6000600560009054906101000a900473ffffffffffffffffffffffffffffffffffffffff1673ffffffffffffffffffffffffffffffffffffffff163373ffffffffffffffffffffffffffffffffffffffff161415610c0c5781600860006101000a81548173ffffffffffffffffffffffffffffffffffffffff021916908373ffffffffffffffffffffffffffffffffffffffff160217905550600190505b919050565b6000808211610c55576040517f08c379a0000000000000000000000000000000000000000000000000000000008152600401610c4c90611594565b60405180910390fd5b600660003373ffffffffffffffffffffffffffffffffffffffff1673ffffffffffffffffffffffffffffffffffffffff16815260200190815260200160002054821115610ca157600080fd5b600060095483610cb191906116d6565b905080471015610cf6576040517f08c379a0000000000000000000000000000000000000000000000000000000008152600401610ced90611614565b60405180910390fd5b60003390508073ffffffffffffffffffffffffffffffffffffffff166108fc839081150290604051600060405180830381858888f19350505050158015610d41573d6000803e3d6000fd5b5083600660003373ffffffffffffffffffffffffffffffffffffffff1673ffffffffffffffffffffffffffffffffffffffff16815260200190815260200160002054610d8d9190611730565b600660003373ffffffffffffffffffffffffffffffffffffffff1673ffffffffffffffffffffffffffffffffffffffff168152602001908152602001600020819055508360066000600560009054906101000a900473ffffffffffffffffffffffffffffffffffffffff1673ffffffffffffffffffffffffffffffffffffffff1673ffffffffffffffffffffffffffffffffffffffff16815260200190815260200160002054610e3d9190611680565b60066000600560009054906101000a900473ffffffffffffffffffffffffffffffffffffffff1673ffffffffffffffffffffffffffffffffffffffff1673ffffffffffffffffffffffffffffffffffffffff16815260200190815260200160002081905550600560009054906101000a900473ffffffffffffffffffffffffffffffffffffffff1673ffffffffffffffffffffffffffffffffffffffff163373ffffffffffffffffffffffffffffffffffffffff167fddf252ad1be2c89b69c2b068fc378daa952ba7f163c4a11628f55a4df523b3ef86604051610f219190611654565b60405180910390a3600192505050919050565b6000600760008473ffffffffffffffffffffffffffffffffffffffff1673ffffffffffffffffffffffffffffffffffffffff16815260200190815260200160002060008373ffffffffffffffffffffffffffffffffffffffff1673ffffffffffffffffffffffffffffffffffffffff16815260200190815260200160002054905092915050565b6000600560009054906101000a900473ffffffffffffffffffffffffffffffffffffffff1673ffffffffffffffffffffffffffffffffffffffff163373ffffffffffffffffffffffffffffffffffffffff1614156110c957600073ffffffffffffffffffffffffffffffffffffffff168273ffffffffffffffffffffffffffffffffffffffff161415611083576040517f08c379a000000000000000000000000000000000000000000000000000000000815260040161107a90611634565b60405180910390fd5b81600560006101000a81548173ffffffffffffffffffffffffffffffffffffffff021916908373ffffffffffffffffffffffffffffffffffffffff160217905550600190505b919050565b6000813590506110dd816117db565b92915050565b6000813590506110f2816117f2565b92915050565b60006020828403121561110a57600080fd5b6000611118848285016110ce565b91505092915050565b6000806040838503121561113457600080fd5b6000611142858286016110ce565b9250506020611153858286016110ce565b9150509250929050565b60008060006060848603121561117257600080fd5b6000611180868287016110ce565b9350506020611191868287016110ce565b92505060406111a2868287016110e3565b9150509250925092565b600080604083850312156111bf57600080fd5b60006111cd858286016110ce565b92505060206111de858286016110e3565b9150509250929050565b6000602082840312156111fa57600080fd5b6000611208848285016110e3565b91505092915050565b61121a81611776565b82525050565b600061122d60318361166f565b91507f50726963652063616e206265206368616e676564206279206f776e6572206f7260008301527f20627920617070726f766572206f6e6c790000000000000000000000000000006020830152604082019050919050565b6000611293602e8361166f565b91507f416c6c6f77616e636520666f722064656c6567617465206f776e65722069732060008301527f6e6f742073756666696369656e740000000000000000000000000000000000006020830152604082019050919050565b60006112f960248361166f565b91507f53656e64204e756d206f6620546f6b656e732067726561746572207468616e2060008301527f7a65726f000000000000000000000000000000000000000000000000000000006020830152604082019050919050565b600061135f60228361166f565b91507f6163636f756e742073686f756c64206e6f74206265207a656f7220616464726560008301527f73730000000000000000000000000000000000000000000000000000000000006020830152604082019050919050565b60006113c5601d8361166f565b91507f696e73756666696369656e742062616c616e6365206f66206f776e65720000006000830152602082019050919050565b600061140560288361166f565b91507f796f7520646f6e2774206861766520656e6f75676820746f6b656e7320746f2060008301527f7472616e736665720000000000000000000000000000000000000000000000006020830152604082019050919050565b600061146b60368361166f565b91507f436f6e747261637420646f6573204e6f74206861766520656e6f75676820626160008301527f6c616e636520746f2072657475726e20746f6b656e73000000000000000000006020830152604082019050919050565b60006114d160318361166f565b91507f4f776e6572736869702063616e2774206265207472616e73666572726564207460008301527f6f2061207a65726f2061646472657373200000000000000000000000000000006020830152604082019050919050565b611533816117a2565b82525050565b600060208201905061154e6000830184611211565b92915050565b6000602082019050818103600083015261156d81611220565b9050919050565b6000602082019050818103600083015261158d81611286565b9050919050565b600060208201905081810360008301526115ad816112ec565b9050919050565b600060208201905081810360008301526115cd81611352565b9050919050565b600060208201905081810360008301526115ed816113b8565b9050919050565b6000602082019050818103600083015261160d816113f8565b9050919050565b6000602082019050818103600083015261162d8161145e565b9050919050565b6000602082019050818103600083015261164d816114c4565b9050919050565b6000602082019050611669600083018461152a565b92915050565b600082825260208201905092915050565b600061168b826117a2565b9150611696836117a2565b9250827fffffffffffffffffffffffffffffffffffffffffffffffffffffffffffffffff038211156116cb576116ca6117ac565b5b828201905092915050565b60006116e1826117a2565b91506116ec836117a2565b9250817fffffffffffffffffffffffffffffffffffffffffffffffffffffffffffffffff0483118215151615611725576117246117ac565b5b828202905092915050565b600061173b826117a2565b9150611746836117a2565b925082821015611759576117586117ac565b5b828203905092915050565b600061176f82611782565b9050919050565b60008115159050919050565b600073ffffffffffffffffffffffffffffffffffffffff82169050919050565b6000819050919050565b7f4e487b7100000000000000000000000000000000000000000000000000000000600052601160045260246000fd5b6117e481611764565b81146117ef57600080fd5b50565b6117fb816117a2565b811461180657600080fd5b5056fea26469706673582212208109977c4aeddcf6b1c65575fe061e7bc35563d3c0fa05b13aa97346716f2bc064736f6c63430008000033",
  "immutableReferences": {},
  "source": "// SPDX-License-Identifier: MIT\n\npragma solidity ^0.8.0;\n\ninterface IERC20\n{\n    function totalSupply() external view returns (uint256);\n    function balanceOf(address account) external view returns (uint256);\n    function transfer(address recipient, uint256 amount) external returns (bool);\n    function allowance(address owner, address spender) external view returns (uint256);\n    function approve(address spender, uint256 amount) external returns (bool);\n    function transferFrom(address sender,address recipient,uint256 amount) external returns (bool);\n    event Transfer(address indexed from, address indexed to, uint256 value);\n    event Approval(address indexed owner, address indexed spender, uint256 value);\n}\n\ncontract myTokenERC20 is IERC20\n{\n    uint _totalSupply;\n    uint _tokenCap;\n    uint8 _decimal;\n    string _tokenName;\n    string _tokenSymbol;\n    address _contractOwner;\n    mapping (address => uint) _balances; \n    mapping (address => mapping(address => uint256)) _allowances;\n    \n    \n    constructor(uint256 initialSupply,uint8 decimal, string memory tokenName, string memory tokenSymbol) \n    {\n   _totalSupply = initialSupply*10**decimal;\n   _tokenName = tokenName;\n   _tokenSymbol = tokenSymbol;\n   _contractOwner=msg.sender;\n   _balances[msg.sender] = _totalSupply;\n    _tokenCap=_totalSupply*2;\n    \n     }\n     \n    // modifier to check whether given address is _contractOwner or not?\n     modifier isOwner {\n        if(msg.sender == _contractOwner) {\n        _;\n        }\n    }\n    \n    function totalSupply() override external view returns (uint)\n    {\n        return _totalSupply;\n    }\n    \n    function balanceOf(address tokenOwner) override external view returns (uint) {\n    return _balances[tokenOwner];\n     }\n     \n     function transfer(address receiver,uint numTokens) override external returns(bool)\n      {\n      require(numTokens <= _balances[msg.sender],\"you don't have enough tokens to transfer\");\n     _balances[msg.sender] = _balances[msg.sender] - numTokens; // 100 -12 =88\n     _balances[receiver] = _balances[receiver] + numTokens;   //0 + 12= 12\n      emit Transfer(msg.sender, receiver, numTokens);\n       return true;\n      }\n      \n      function allowance(address owner,address delegate) override public view returns (uint) {\n       return _allowances[owner][delegate];\n        }\n      \n      function approve(address delegate,uint numTokens) override external returns (bool) {\n      _allowances[msg.sender][delegate] = numTokens;\n       emit Approval(msg.sender, delegate, numTokens);\n       return true;\n       }\n       \n       function transferFrom(address owner, address buyer,uint numTokens) override public returns (bool) {\n       require(numTokens <= _balances[owner],\"insufficient balance of owner\");\n       require(numTokens <= _allowances[owner][msg.sender],\"Allowance for delegate owner is not sufficient\"); \n       require(buyer != address(0),\"account should not be zeor address\");\n       _balances[owner] = _balances[owner] - numTokens;\n       _allowances[owner][msg.sender] = _allowances[owner][msg.sender] - numTokens;\n       _balances[buyer] = _balances[buyer] + numTokens;\n       emit Transfer(owner, buyer, numTokens);\n       return true;\n       }\n       \n        //3C 1)Owner can transfer the ownership of the Token Contract.(onlu owner can do that)\n       \n       function transferOwnership(address newOwner) public isOwner returns(bool a){\n       require(newOwner!=address(0),\"Ownership can't be transferred to a zero address \");\n       _contractOwner=newOwner;\n           return(true);\n       }\n       \n       // 3C 2. Owner can approve or delegate anybody to manage the pricing of tokens.& \n       \n        address _approverToChangePrice;\n       \n       // modifier authorizedPriceController written to match the address of the caller and approver or to match the address with owner\n       //modifier for owner OR  approver from owner to get control over pricisng of tokens\n       \n        modifier authorizedPriceController{\n        require(msg.sender==_approverToChangePrice || msg.sender==_contractOwner,\"Price can be changed by owner or by approver only\");\n        {\n            _;\n        }\n        }\n        function getApproverToChangePrice(address approver) public isOwner returns(bool a){\n        _approverToChangePrice=approver;\n         return (true);\n        }\n        //3C  3.Update pricing method to allow owner and approver to change the price of the token\n        uint tokenRate= 1 ether;\n        \n        function setPrice(uint newPrice) public authorizedPriceController returns(uint){\n          tokenRate = newPrice;\n          return(tokenRate);\n      }\n         \n       //3C 4)Add the ability that Token Holder can return the Token and get back the Ether based on the current price.\n       \n        \n       function getbackEthers(uint numTokens) public payable returns(bool){\n       require(numTokens>0,\"Send Num of Tokens greater than zero\");\n       require(numTokens<= _balances[msg.sender]);\n       uint value= numTokens*tokenRate; // 5 *1 = 5 ethers\n       require(address(this).balance>=value,\"Contract does Not have enough balance to return tokens\");\n       address payable to = payable(msg.sender);   // we took a variable address type \n       to.transfer(value);\n       _balances[msg.sender]=_balances[msg.sender]-numTokens;\n       _balances[_contractOwner]= _balances[_contractOwner]+numTokens;\n       emit Transfer(msg.sender, _contractOwner, numTokens);\n       return true;\n       } \n       \n       \n       \n}",
  "sourcePath": "D:\\3C\\contracts\\myTokenERC20.sol",
  "compiler": {
    "name": "solc",
    "version": "0.8.0+commit.c7dfd78e.Emscripten.clang"
  },
  "schemaVersion": "3.4.3",
  "updatedAt": "2021-09-14T19:33:11.412Z",
  "networkType": "ethereum",
  "devdoc": {
    "kind": "dev",
    "methods": {},
    "version": 1
  },
  "userdoc": {
    "kind": "user",
    "methods": {},
    "version": 1
  }
}